{
  "contractName": "EthSwap",
  "abi": [
    {
      "constant": true,
      "inputs": [],
      "name": "name",
      "outputs": [
        {
          "internalType": "string",
          "name": "",
          "type": "string"
        }
      ],
      "payable": false,
      "stateMutability": "view",
      "type": "function"
    }
  ],
  "bytecode": "0x60806040526040518060400160405280601881526020017f4574685377617020496e7374616e742045786368616e676500000000000000008152506000908051906020019061004f929190610062565b5034801561005c57600080fd5b50610107565b828054600181600116156101000203166002900490600052602060002090601f016020900481019282601f106100a357805160ff19168380011785556100d1565b828001600101855582156100d1579182015b828111156100d05782518255916020019190600101906100b5565b5b5090506100de91906100e2565b5090565b61010491905b808211156101005760008160009055506001016100e8565b5090565b90565b610186806101166000396000f3fe608060405234801561001057600080fd5b506004361061002b5760003560e01c806306fdde0314610030575b600080fd5b6100386100b3565b6040518080602001828103825283818151815260200191508051906020019080838360005b8381101561007857808201518184015260208101905061005d565b50505050905090810190601f1680156100a55780820380516001836020036101000a031916815260200191505b509250505060405180910390f35b60008054600181600116156101000203166002900480601f0160208091040260200160405190810160405280929190818152602001828054600181600116156101000203166002900480156101495780601f1061011e57610100808354040283529160200191610149565b820191906000526020600020905b81548152906001019060200180831161012c57829003601f168201915b50505050508156fea265627a7a7231582003895f838647aa2702699c4d5404d7f44e8d7b69257138858a491d1b15b467f364736f6c63430005100032",
  "source": "// https://eips.ethereum.org/EIPS/eip-20\n// SPDX-License-Identifier: MIT\npragma solidity ^0.5.0;\n\ncontract EthSwap {\n    string public name = 'EthSwap Instant Exchange'; \n}\n\n// interface Token {\n\n//     /// @param _owner The address from which the balance will be retrieved\n//     /// @return balance the balance\n//     function balanceOf(address _owner) external view returns (uint256 balance);\n\n//     /// @notice send `_value` token to `_to` from `msg.sender`\n//     /// @param _to The address of the recipient\n//     /// @param _value The amount of token to be transferred\n//     /// @return success Whether the transfer was successful or not\n//     function transfer(address _to, uint256 _value)  external returns (bool success);\n\n//     /// @notice send `_value` token to `_to` from `_from` on the condition it is approved by `_from`\n//     /// @param _from The address of the sender\n//     /// @param _to The address of the recipient\n//     /// @param _value The amount of token to be transferred\n//     /// @return success Whether the transfer was successful or not\n//     function transferFrom(address _from, address _to, uint256 _value) external returns (bool success);\n\n//     /// @notice `msg.sender` approves `_addr` to spend `_value` tokens\n//     /// @param _spender The address of the account able to transfer the tokens\n//     /// @param _value The amount of wei to be approved for transfer\n//     /// @return success Whether the approval was successful or not\n//     function approve(address _spender  , uint256 _value) external returns (bool success);\n\n//     /// @param _owner The address of the account owning tokens\n//     /// @param _spender The address of the account able to transfer the tokens\n//     /// @return remaining Amount of remaining tokens allowed to spent\n//     function allowance(address _owner, address _spender) external view returns (uint256 remaining);\n\n//     event Transfer(address indexed _from, address indexed _to, uint256 _value);\n//     event Approval(address indexed _owner, address indexed _spender, uint256 _value);\n// }\n\n// contract Standard_Token is Token {\n//     uint256 constant private MAX_UINT256 = 2**256 - 1;\n//     mapping (address => uint256) public balances;\n//     mapping (address => mapping (address => uint256)) public allowed;\n//     uint256 public totalSupply;\n//     /*\n//     NOTE:\n//     The following variables are OPTIONAL vanities. One does not have to include them.\n//     They allow one to customise the token contract & in no way influences the core functionality.\n//     Some wallets/interfaces might not even bother to look at this information.\n//     */\n//     string public name;                   //fancy name: eg Simon Bucks\n//     uint8 public decimals;                //How many decimals to show.\n//     string public symbol;                 //An identifier: eg SBX\n\n//     constructor(uint256 _initialAmount, string memory _tokenName, uint8 _decimalUnits, string  memory _tokenSymbol) {\n//         balances[msg.sender] = _initialAmount;               // Give the creator all initial tokens\n//         totalSupply = _initialAmount;                        // Update total supply\n//         name = _tokenName;                                   // Set the name for display purposes\n//         decimals = _decimalUnits;                            // Amount of decimals for display purposes\n//         symbol = _tokenSymbol;                               // Set the symbol for display purposes\n//     }\n\n//     function transfer(address _to, uint256 _value) public override returns (bool success) {\n//         require(balances[msg.sender] >= _value, \"token balance is lower than the value requested\");\n//         balances[msg.sender] -= _value;\n//         balances[_to] += _value;\n//         emit Transfer(msg.sender, _to, _value); //solhint-disable-line indent, no-unused-vars\n//         return true;\n//     }\n\n//     function transferFrom(address _from, address _to, uint256 _value) public override returns (bool success) {\n//         uint256 allowance = allowed[_from][msg.sender];\n//         require(balances[_from] >= _value && allowance >= _value, \"token balance or allowance is lower than amount requested\");\n//         balances[_to] += _value;\n//         balances[_from] -= _value;\n//         if (allowance < MAX_UINT256) {\n//             allowed[_from][msg.sender] -= _value;\n//         }\n//         emit Transfer(_from, _to, _value); //solhint-disable-line indent, no-unused-vars\n//         return true;\n//     }\n\n//     function balanceOf(address _owner) public override view returns (uint256 balance) {\n//         return balances[_owner];\n//     }\n\n//     function approve(address _spender, uint256 _value) public override returns (bool success) {\n//         allowed[msg.sender][_spender] = _value;\n//         emit Approval(msg.sender, _spender, _value); //solhint-disable-line indent, no-unused-vars\n//         return true;\n//     }\n\n//     function allowance(address _owner, address _spender) public override view returns (uint256 remaining) {\n//         return allowed[_owner][_spender];\n//     }\n// }",
  "sourcePath": "/Users/nikolaoszisis/Desktop/Projects/Github/dApp/ERC20-swap/src/contracts/EthSwap.sol",
  "compiler": {
    "name": "solc",
    "version": "0.5.16+commit.9c3226ce.Emscripten.clang"
  },
  "schemaVersion": "3.3.4",
  "updatedAt": "2021-04-21T23:35:51.437Z",
  "networkType": "ethereum",
  "devdoc": {
    "methods": {}
  },
  "userdoc": {
    "methods": {}
  }
}